:09047700C1000113000214000091
:0704890053B1FD43B2022252
:0E045100300103D38001C392B1A201920022B8
:08048100A200B3920102045134
:020367008F09FC
:10036900E4F50AE50AC395095018D2011204517F30
:1003790078120410C2011204517F78120410050A80
:0C03890080E17FC81204107FC80204103D
:10028C00EF14601814602114602B14603524047072
:10029C0041E4F513F514F515C2018023751301E43F
:1002AC00F514F515D2018017751302751400751528
:1002BC0064D201800A751303E4F514F515D201021A
:1002CC000451751301E4F514F51512048120000294
:0302DC00F51322F5
:1002DF00E51314603924FE601C047039D3E51594BE
:1002EF0000E51494004009E515151570301514221A
:1002FF00E4F51380230515E51570020514C3941951
:10030F00E51494004017E4F514F51502048120005C
:0E031F000CD2018005300005C20112045122EB
:10023600120489120436C2011204517F02120367A6
:100246001201C412032DEF60077F031203678016A5
:100256007F011203677FC81204107FC81204107F43
:10026600C812041080EAE4FF12028C7B007A00793F
:10027600081203E8EF6005AF0812028C1202DF7F56
:060286000A12041080E5DD
:050490004C4544303131
:1004360053B1FA43B20543B10853B2F753C9CF4398
:0B044600CA30C2B0D2CDC2B2C2CC227C
:10041000AD071FED601FE4FEEEC394C874809480A6
:1004200050EEE4FDEDC39414748094805004000DEC
:0504300080F20E80E3E4
:0104350022A4
:06039500C2CDEF4420FF81
:10039B00E4FEEEC39408748094805017EF3392CC34
:1003AB00EF25E0FFD2B20030B303430701C2B20026
:0303BB000E80DFD2
:0103BE00221C
:0B046C00120395AF0512039BD2CD22B6
:0C045F00C2CD12039B7FFF12039BD2CD85
:01046B00226E
:0603BF008B0F8A1089116A
:1003C500120395E4FDEDC395125015AB0FAA10A9C4
:1003D500118D827583001200F9FF12039B0D80E5D4
:0203E500D2CD77
:0103E70022F3
:1001C40078097C007D007BFF7A0479907E007F05AE
:1001D4001200D3120436C2B0D2CDC2B27D0FE4FFF6
:1001E40012046C7F02120410E4FD7F0112046C0DF2
:1001F4007F0212046C7D037F0312046C7D287F054B
:1002040012046C7D067F0612046C7B007A00790967
:100214007512057F0A1203BF7D017F1112046C7DE4
:10022400707F0712046CC2CD7FE212039BD2CDD241
:01023400B019
:0102350022A6
:10032D007C01C2B07F021204107D287F0512046C7F
:10033D007F0512045FEF642860031C80137D067F28
:10034D000612046C7F0612045FEF64066002E4FC83
:09035D00D2B07F02120410AF04BB
:010366002274
:1003E8007F0712045FEF30E61CC2CD7F6112039BCA
:1003F8007FFF12039BEF120126D2CD7D407F0712AB
:07040800046C7F01227F005C
:01040F0022CA
:03000000020138C2
:0C013800787FE4F6D8FD75812002017F7D
:10000300E709F608DFFA8046E709F208DFFA803EDF
:1000130088828C83E709F0A3DFFA8032E309F608CC
:10002300DFFA8078E309F208DFFA807088828C8334
:10003300E309F0A3DFFA806489828A83E0A3F608E8
:10004300DFFA805889828A83E0A3F208DFFA804CC2
:1000530080D280FA80C680D4806980F28033801099
:1000630080A680EA809A80A880DA80E280CA803302
:1000730089828A83ECFAE493A3C8C582C8CCC5837A
:10008300CCF0A3C8C582C8CCC583CCDFE9DEE7804A
:100093000D89828A83E493A3F608DFF9ECFAA9F0C9
:1000A300EDFB2289828A83ECFAE0A3C8C582C8CC1F
:1000B300C583CCF0A3C8C582C8CCC583CCDFEADE38
:1000C300E880DB89828A83E493A3F208DFF980CC9A
:1000D30088F0EF60010E4E60C388F0ED2402B40493
:1000E3000050B9F582EB2402B4040050AF2323453A
:0600F3008223900053730C
:1000F900BB010CE58229F582E5833AF583E02250BC
:1001090006E92582F8E622BBFE06E92582F8E22205
:0D011900E58229F582E5833AF583E493221F
:10012600BB010689828A83F0225002F722BBFE01B8
:02013600F322B2
:10014400020236E493A3F8E493A34003F68001F299
:1001540008DFF48029E493A3F85407240CC8C333BC
:10016400C4540F4420C8834004F456800146F6DF8B
:10017400E4800B0102040810204080900477E47EA0
:10018400019360BCA3FF543F30E509541FFEE49380
:10019400A360010ECF54C025E060A840B8E493A347
:1001A400FAE493A3F8E493A3C8C582C8CAC583CA72
:1001B400F0A3C8C582C8CAC583CADFE9DEE780BE2A
:01048000007B
:00000001FF
